:020000041000EA
:10000000002008205D0100101B0100101D010010E0
:100010001101001011010010110100101101001058
:100020001901001019010010190100101F01001022
:10003000110100101901001021010010230100100E
:100040001101001011010010110100101101001028
:100050001101001011010010110100101101001018
:100060001101001011010010110100101101001008
:1000700011010010110100101101001011010010F8
:1000800011010010110100101101001011010010E8
:1000900011010010110100101101001011010010D8
:1000A00011010010110100101101001011010010C8
:1000B00011010010110100101101001011010010B8
:1000C00011010010110100101101001011010010A8
:1000D0001101001011010010110100101101001098
:1000E0001101001011010010110100101101001088
:1000F0001101001011010010110100101101001078
:100100001101001011010010110100101101001067
:10011000EFF30580103800BE00BE00BE00BE00BE7A
:1001200000BE00BEF2EB887118DF001040DF001047
:10013000A001001090A31AE7D3DEFFFF42012110B7
:10014000FF01000068FE0000793512AB4FF000009F
:100150001E49086006C881F3088810474FF05040D8
:10016000006810B14FF00000F2E70DA40ECC00299A
:1001700002D000F012F8F9E71549164A002000E015
:1001800001C19142FCD11449884714498847144958
:10019000884700BEFDE701C901C29A42FBD3704700
:1001A00040DF00101001002070210020A0FF00108F
:1001B0000000082000000820A0FF00100010082008
:1001C00000100820000000007047000008ED00E06B
:1001D00070210020D82D00208942001075020010E7
:1001E0004D420010F8B500BF0348044B834202D0D3
:1001F000034B03B118477047702100207021002085
:1002000000000000064B0749C91A891048BF013198
:10021000491003D0044B0BB101481847704700BF89
:1002200070210020702100200000000010B5064C55
:10023000237843B9FFF7D8FF044B13B10448AFF359
:1002400000800123237010BDF82200200000000070
:1002500070D4001008B5044B1BB104490448AFF337
:100260000080BDE80840CDE700000000FC2200202F
:1002700070D400102DE9F04F2DED0C8BADF50D5D18
:1002800089B002AF04F062F9502002F0D5FC0346B9
:1002900040F2DC507B6007F029FA03466C461A46B0
:1002A000A4EBC204A54602AC0CEE104A6C46A4EBCB
:1002B000C204A5460AEE103A9B00073323F0070359
:1002C000D2000B210A200BEE902A02AAADEB030DFF
:1002D0000CEE902A06F0ECFD40F2DC51744A02204C
:1002E00006F0A4FE0346CAAA04200DEE103A3A60B6
:1002F00002F0A2FC0DF1080AD146DFED6E9A9FEDE7
:100300006E9ADFED6E8A9FED6E8A4FF0010B82468A
:1003100003E00BF1010B5FFA8BFB6A4807F1100158
:1003200008F064F83B69684A9342F2D17B69674AF6
:100330009342EED15946664804F0C6F90A2006F009
:10034000D1FD1DEE100A07F1300106F0CFFE0BEED5
:10035000101A0AEE900A02F06BFB07EE900AC7EE45
:10036000A97A17EE906A01F07DF8002584460B46C5
:1003700040F2DC54D7F80480502229464046C7F8A2
:100380000CC0BB6007F0D6FD524B052007F6E832E3
:1003900007F130010194CDF8008006F0B1FD1BEEAD
:1003A000902A29461CEE100A07F0C4FD1CEE101A14
:1003B000204607F6E83207F0B3F91CEE902A1CEE4F
:1003C000101A1AEE100A07F0BBF91CEE102A494663
:1003D0001AEE100A07F006FAB0EE497AC8233A6816
:1003E000F2EC017AB4EEE77AF1EE10FA48BF1D465E
:1003F00003F1010348BFB0EE677AA342F0D1B4EE37
:10040000E87AF1EE10FA50DDA5F16404C82C3EDC68
:1004100001F028F832460446884640F2DC5007F6E0
:10042000E83106F0A7FE3246494640F2DC5006F0BD
:10043000A1FE32465146C92006F09CFE29462648B8
:1004400004F042F9B7EE007A07EE906AC7EE277A19
:1004500067EE887A17EE900A0CF0C2FF0B46024650
:100460001E4804F031F91AEE902A1BEE103A1C488F
:1004700004F02AF9FB681B48E21ABB6868EB030327
:1004800004F022F95946184804F01EF941E74FF4E8
:1004900049720021504607F04DFD4FF44972504615
:1004A00009EB840107F0D0FCB2E74FF0FF35AFE76E
:1004B0000000C5430080BB4400000000CDCCCC3D13
:1004C00000007A4470D400106D6561737572650028
:1004D0007CD40010A8D9001094D40010A4D400102B
:1004E000C4D40010DCD40010FCD4001010B44FF4BD
:1004F00080740C4B53F8202003EB8003C00082F083
:10050000400200F1804003F5805C02F0C00200F57B
:10051000203003F54053CCF8002041601C605DF8AA
:10052000044B704704800340002915BF0C210421AF
:100530004FF0080C4FF0000C002A08BF6146064B34
:1005400053F8202003EB80034A4003F5805302F068
:100550000C021A60704700BF04800340402221B1A2
:10056000044B800003441A607047034B800003442F
:100570001A60704704A0034004B0034030B4002365
:1005800043EC440043EC400005254FF480740B4BD2
:10059000C20053F8201003EB800081F0400102F10B
:1005A000804303F5203301F0C00200F5805100F5CF
:1005B00040500A605D60046030BC704704800340B6
:1005C0000FB400B583B0049C074803F0FFFF3CB1B3
:1005D00005A92046019103F0D9FD044803F0F6FF78
:1005E000012003F0EBFD00BF64D5001010D5001012
:1005F00070B5EFF3108572B6134CD4E8CFCF012657
:10060000BCF1000FF9D1C4E84C6FBCF1000FF4D17C
:10061000BFF35F8F4FF0010C4FEAD10E01F00703DB
:100620000CFA03F310F80EC01CEA030608D14CEADA
:10063000030300F80E30C4E88F6F85F3108870BD97
:100640001046FFF7BDFF00BFFB240020F8B5EFF315
:10065000108572B6234CD4E8CF7F0126002FFAD143
:10066000C4E8476F002FF6D1BFF35F8F9A4227D8B7
:100670000126D70810F807E002F0070C06FA0CFC78
:100680001EEA0C0F00EBD2070DD125E04FEAD20E87
:1006900010F80EE002F0070C06FA0CFC1EEA0C0F34
:1006A00000EBD20718D001329342EFD24FF0FF3067
:1006B0000023C4E88F3F85F31088984207DBF8BD1C
:1006C0000023C4E88F3F85F310884FF0FF300029E6
:1006D000F5D00698FFF774FF4EEA0C0C104687F829
:1006E00000C0E5E7FB240020044A1078431CDBB27D
:1006F000172B88BF10231370704700BF18170020F6
:1007000010B5054C82B001461F23182200940348FF
:10071000FFF79CFF02B010BD74D500100C2900201B
:100720004FF0E022936843F000539360704700BF9E
:100730000021044B03F12002C3E88F1F01339342D1
:10074000FAD17047F02400204FF0E0234FF08032C0
:10075000C3F80024C3F80424C3F80824C3F80C2405
:10076000C3F81024C3F81424C3F81824C3F81C24B5
:10077000C3F82024C3F82424C3F82824C3F82C2465
:10078000C3F8302462B67047012300F01F02934083
:10079000400941B1800000F1604000F56140C0F8BF
:1007A000803103607047024A203042F820307047A1
:1007B00000E100E00123064A410952F8212000F03F
:1007C0001F0003FA00F0104214BF184600207047C3
:1007D00000E100E001224309044900F01F0002FA91
:1007E00000F0403341F82300704700BF00E100E013
:1007F000054A10309268054B52F82000C01A2F2885
:100800008CBF00200120704700ED00E01C17002085
:10081000F8B50D46EFF3108772B6124ED6E8CF2F1B
:100820000123002AFAD1C6E8423F002AF6D1BFF3DD
:100830005F8F0D4B00F110049B680C4A53F8243075
:10084000934203D0994201D000F0C4FF064B9B684D
:1008500043F82450BFF35F8F0023C6E88F3F87F330
:100860001088F8BDF924002000ED00E0110100100F
:100870002DE9F04F80468B46174683B0EFF3108387
:1008800072B6DFF8D0A10093DAE8CF1F0123002968
:10089000FAD1CAE8413F0029F6D1BFF35F8F664E17
:1008A00096F90050002DC0F2A080644C05EB450382
:1008B00004EB8300817908F11008317060499B00D6
:1008C0008968994651F828E00646AEEB04012F29C5
:1008D0004FEA450231D95B4B9E4540F0A2805A4B0E
:1008E00009F10209A144043BA3EB0903C3F34A0342
:1008F0006FEAC3434FF421416FEAD343154424F810
:10090000251004EB85056B804BF60153AB80FF236C
:1009100046F0010EEF71C5F808B0AB71484B9B680B
:1009200043F828E0BFF35F8F0023CAE88F3F009BA6
:1009300083F3108803B0BDE8F08F2EF0010191F829
:1009400007C0BC452BD84FF42146E6523E4B09F177
:1009500002062644043B09F104099B1BA1440E1F17
:10096000C771A6EB0906394FC6F34A063E43868097
:10097000C3F34A03364E3B4343804AF6AA250B464F
:100980001B1B5B415D432D0DC0F808B0857140F025
:10099000010E0E60C2E7C079B8422BD9614691F9C9
:1009A000063003EB430004EB8000002B8446F2DAB0
:1009B0004BF6015001930B1D043EF61AC6F34A068E
:1009C0006FEAC6466FEAD64602EB050CDFF8809068
:1009D000019B8D7104EB8C058E8044F82C90A880CF
:1009E000AB71EF71C5F808B098E700F0F3FE96F927
:1009F00000505AE788880193400501F1040315D49B
:100A00004FEA605C6FF007000CF1020CA0EB0900EC
:100A100003EB4C0C001B6044C0F34A0040F4604000
:100A2000CAE7019200F0D6FE019A58E700F5FF10E0
:100A300000F5FF501F30E3E7D32D00201C170020E6
:100A400000ED00E0110100104C17002000E0FFFF56
:100A500001488047F9240020F0B5EFF30585EDB299
:100A6000EFF3108C72B62649D1E8CF2F0123002A6C
:100A7000FAD1C1E8423F002AF6D1BFF35F8F214E81
:100A800040F0010EB4684AF6AA2354F825701E4AB5
:100A90000446A41A644163431B0D77455BB21BD027
:100AA00092F906409C421CD092F912409C4223D0FD
:100AB00092F91E409C4221D092F92A409C4208BFE4
:100AC00003240FD0114A0024157813708571C1E8F2
:100AD0008F4F8CF31088F0BDB2680D4C42F8254062
:100AE000F0E7002404EB440402EB8402FF24947139
:100AF0004BF601549480E5E70124F3E70224F1E783
:100B0000F924002000ED00E01C170020D32D002068
:100B10001101001010B5074C82B0014605230022D8
:100B200000940548FFF792FD0028A8BFC0F13300EC
:100B300002B010BD90D50010D72D0020014B1944F4
:100B400001607047F0240020F8B5124D124EB542F6
:100B50001FD22C462368FF277BB1FFF7C5FD014656
:100B60002846FFF7EBFFA780BFF35F8F0834B4423E
:100B70000FD223682546002BEFD1FFF7B5FD0146C4
:100B80002846FFF7DBFF2771BFF35F8F0834B442BD
:100B9000EFD3F8BD682100207021002010B5044675
:100BA000FFF7A2FD01462046FFF7C8FFFF23237190
:100BB000BFF35F8F10BD00BF10B504460120FFF7E3
:100BC0009FFD034B18442060BFF35F8F10BD00BF33
:100BD000F0240020024B19440160BFF35F8F70477F
:100BE000F02400200D4B1A68EFF3108172B6D2E8A2
:100BF000CFCF0120BCF1000FF9D1C2E84C0FBCF1FE
:100C0000000FF4D1BFF35F8F00221B68C3E88F2F62
:100C100081F3108840BF002000217047B02D0020D4
:100C20002DE9F04F2DED028B85B0EFF30583DBB29C
:100C3000103B9A0818BF01224FF0010103F0030096
:100C4000AD4B00EB82020CBFAC4FAD4F53F82260AE
:100C500001FA00F207F541539FEDA58BB0460190D4
:100C600000925A6035E0B8F804301B0440F19280DD
:100C700098F80630002B40F0DF80B8F90820002AF1
:100C8000C0F22581D8F8143002EB420203EBC20215
:100C9000D2E90245B5F1FF3F08BFB4F1FF3F0DD0E7
:100CA000019B07EB8301BB6A0A69D21AE31A9342DC
:100CB00003D33B6A009A134200D10C61384600F01E
:100CC000C9FB201A65EB0105012875F1000380F2CC
:100CD000FE80B8F90840009B002CFB63C3DBD8F80A
:100CE00014A004EB440B38460AEBCB05D5E9029679
:100CF00000F0B0FB484561EB06010029B3DB002E94
:100D0000C0F2C3802B697F4A934200F0FD806A885D
:100D1000B8F9080092B242EA004069699847024671
:100D20000B4652EA030100F0B080002B80F2D58020
:100D3000B9EB020066EB0303C5E902033AF93B5045
:100D4000002D90DBD8F814C005EB45010CEBC10178
:100D50008A68821ACA6863EB0202002A83DBA8F859
:100D6000085007E09568451BD56863EB0505002D25
:100D700008DB1146B1F9006006EB4602002E0CEBD1
:100D8000C202EFDA2AF83B600C80B8F804301B048A
:100D90003FF56EAFD8F81030EFF3108272B6D3E89B
:100DA000CF0F01210028FAD1C3E8401F0028F6D157
:100DB000BFF35F8F4FF6FF70B8F804900023D8F8A8
:100DC00010100FFA89F9A8F80400C1E88F3F82F3E8
:100DD00010889945FFF64CAFBA46D8F8145008F180
:100DE000080B09EB490E05EBCE03D3E90267B8F90E
:100DF0000830DC46002B05DA0FE035F93430844644
:100E0000002B0ADB03EB430405EBC400D0E902121C
:100E1000711A67EB0202002AEFDAACF8009035F99C
:100E20003E9025F83E30B9F1000FDADA98F8063036
:100E30005746002B3FF421AF002388F80630B8F95D
:100E4000083008F1080C5E1C41D01A46D8F814404E
:100E500003E08446591C3FF412AF03EB430104EB5B
:100E6000C10045881E462D0434F93130F1D5964233
:100E700080ED028BEED0ACF80030B8F8082024F8F2
:100E800031203246A8F80860E4E73AF83B30A8F889
:100E90000830D8F81030EFF3108272B6D3E8CF0FD5
:100EA00001210028FAD1C3E8401F0028F6D1BFF382
:100EB0005F8FB8F80230D8F810102AF83B300023C2
:100EC000A8F80240C1E88F3F82F31088CBE640BF0C
:100ED00005B0BDEC028BBDE8F08F3846CDE90223AA
:100EE00000F0B8FA029A039B801843EB010323E752
:100EF000FFFFFFFFFFFFFFFF882D002000000B40DA
:100F000000800B40210C00106B6918461A6902938F
:100F100090470028B9D0029BD3E9002301E700BF26
:100F20002DE9F84F364C25692DB1BDE8F84F0A215F
:100F30003448FFF703BEDFF8E48003260321404670
:100F400000F076FAC4F80C80FFF7CEFB4FF0504C5F
:100F50002D4B26701844DCF800300F216370636954
:100F600061801D834FF00405A3F878504FF005050C
:100F7000A3F890504FF00605A3F8A8504FF00705CE
:100F80000E21206108274FF6FF724FF00A0EA3F8DA
:100F9000C0504FF001094FF00C0C4FF0020B4FF016
:100FA000090A0D204FF00B05A3F868111749A2801C
:100FB000A3F808E1A160A3F848B0A3F8F0A0A3F853
:100FC0002051A3F838C1A3F85001A3F83090A3F83A
:100FD0006060A3F8D8701A800D4B3046C8F82070B6
:100FE0000C49DC60FFF714FC49463046FFF7CCFBA8
:100FF000094B0A211F600348BDE8F84FFFF79EBD6B
:1010000064170020B02D0020F0240020FFFF100006
:10101000882D0020210C001040200B4000000B40C8
:1010200000487047641700202DE9F0419DF82050DA
:10103000044617461E4635B900F014FA874266EB9F
:101040000101002957DB2169EFF3108072B6D1E866
:10105000CF2F0123002AFAD1C1E8423F002AF6D15E
:10106000BFF35F8FB4F90220D4F814C002EB420141
:10107000002A4FEAC10E0CEBC10102DB3CF80E3036
:1010800063804FF000082369C3E88F8F80F31088D6
:10109000424533DB4888069B0130C0F30E0001282F
:1010A00038BF01200B61079B48804B61C1E9027684
:1010B00040EA02402369EFF3108172B6D3E8CF6FA4
:1010C0000125002EFAD1C3E8465F002EF6D1BFF30A
:1010D0005F8FA3882CF80E30A2802369C3E88F8F1E
:1010E00081F310880122E368217803F501538A40D7
:1010F0005A60BDE8F0812846BDE8F0814FF0FF302E
:10110000F7E700BF0146F0B50069EFF3108772B64C
:10111000D0E8CF5F0124002DFAD1C0E8454F002D63
:10112000F6D1BFF35F8FB1F902E04C690EEB4E0CC4
:101130004FEACC06BEF1000FA8BFA05B4FF0000540
:10114000A8BF488004EBCC0C0869C0E88F5F87F328
:101150001088AE4535DBBCF80200CCE90223013033
:10116000C0F30E00012838BF0120059BACF8020037
:10117000CCF81030069B40EA0E40CCF814300B69D6
:10118000EFF3108272B6D3E8CFCF0127BCF1000F86
:10119000F9D1C3E84C7FBCF1000FF4D1BFF35F8FEE
:1011A0008B88A353A1F804E00B69C3E88F5F82F337
:1011B00010880122CB68097803F501538A405A60F0
:1011C000F0BD4FF0FF30F0BD4289B2EB214F38DD6A
:1011D00042690B1403EB430310B502EBC30304692C
:1011E000EFF3108C72B6D4E8CFEF0122BEF1000FFE
:1011F000F9D1C4E84E2FBEF1000FF4D1BFF35F8FD9
:101200005A8889B292B28A4207D000230269C2E8A2
:101210008F3F8CF31088184610BD42F400425A806C
:101220000123002201698371C1E88F2F8CF310889C
:10123000C268017802F5015203FA01F118465160C3
:1012400010BD0020704700BF407870472DE9F04185
:10125000861F41F1FF35B04271EB050338BF002610
:1012600082B038BF354604460F4600F0FBF8301A0E
:1012700065EB0101012871F1000306DA20463946C9
:1012800002B0BDE8F04100F01DB900F0EBF8864275
:1012900065EB010100290ADB0021174B3246009360
:1012A00016482B460191FFF72DFF0028E6DB4FF093
:1012B000000C1348134A436A9D4204D8816AB14224
:1012C000DCD29D42DAD11368EFF3108172B6D3E815
:1012D000CF8F5FF0010EB8F1000FF8D1C3E848EFEF
:1012E000B8F1000FF3D1BFF35F8F1368C3E88FCF5E
:1012F00081F3108820BFDEE7E50B001064170020A3
:1013000000000B40B02D002038B504460D4600F01B
:10131000A9F8201845EB01010029B8BF4FF0FF30B4
:10132000BDE83840B8BF6FF00041FFF78FBF00BF86
:1013300010B5044600F096F84FF47A73E4FB03010D
:10134000BDE810400029BCBF4FF0FF306FF00041F6
:10135000FFF77CBF2DE9F04307460E4683B0EFF35D
:101360000584E4B274B12F4B586A884203D200203E
:1013700003B0BDE8F0839B6ABB4248D3012003B0B1
:10138000BDE8F083284DD5F80C9095F800804846CC
:1013900000F060F808F1040859F828301B1A381AD0
:1013A00066EB0101984271F100030DDB20BF1D4B7C
:1013B000586A8642DBD89B6ABB42DFD2301A18BF1C
:1013C000012003B0BDE8F08300F04CF8874266EBE3
:1013D0000101002913DB154B2846CDE900343A46BC
:1013E0003346FFF78FFE011E09DD0E4B5A6A964207
:1013F00015D89B6ABB4210D30B48FFF7E5FE094B9B
:10140000586A8642B3D89B6ABB42B7D2D6E7401A25
:1014100018BF012003B0BDE8F0839642ECD120BF95
:10142000EAE700BF00000B4064170020E50B001046
:1014300010B4054B054C064AA04214BF1846581C70
:101440005DF8044BFFF7D4B81029002000800B4052
:10145000B8D50010416A0B46826A416A8B42FAD1C4
:1014600010467047034B596A0A46986A596A914276
:10147000FAD1704700000B4010B4114A536A9C46E1
:10148000946A536A6345FAD100194B414FF0000248
:1014900028BF012212B14FF0FF33184608494A6AAB
:1014A0009A42FCD39A4207D1054A02E0516A994216
:1014B00002D1916A8142F9D35DF8044B704700BFB5
:1014C00000000B40074A536A9942FCD8994207D161
:1014D000044B02E05A6A914202D19A6A8242F9D3DD
:1014E000704700BF00000B4000EB400C4FEA8C0C33
:1014F0000CF1804C0CF5803C70B5DCF80440A0F198
:10150000040EB4F5803F38BF4FF480345FFA8EFE8E
:1015100038BFCCF80440BEF1010F29D94FF4006662
:10152000244D0CF54054266055F82060BEB9DCF817
:1015300000400CF5805684EA421202F0E002BEF14F
:10154000010F326028D94FF4006145F820304FF484
:1015500080330CF500521160CCF8043070BD6C691A
:10156000B4FBF6F4013404EB4404033CFDD2DEE7A3
:101570000129D3D103250CF540542560DCF808403F
:10158000E407FBD5DCF800400CF5805684EA4212F3
:1015900002F0E002074D32600122DCF800404C40CE
:1015A00004F00304346002FA01F1DCF808200A4276
:1015B000FBD0C8E714290020014B53F820007047E6
:1015C0001429002070B4039C0568240344EA0343F3
:1015D0001B4C002DB4FBF1F4B2FBF4F21FDB194DF0
:1015E000194CA8420CBF4FF400454FF48045174EEC
:1015F000256004F580542560B46835EA0404FBD105
:10160000212500F5405404340160826025600268A1
:10161000002AFCDA0822C360226070BC70470468AC
:1016200004F03F048C42DAD18468C4F30B04944282
:10163000D5D1C46804F4EE249C42D0D1EDE700BFBC
:10164000001BB7000080054000200240000002405F
:1016500030B44FF080441D4B1C60E0B11C4CA3F52E
:101660004053DC611B4C40F0010044401C62596255
:1016700098624FF080454FF0E061144B1648174CCC
:101680001D60846019604AB930BC4FF00042A3F578
:1016900080531A607047124BD861EAE74FF47A73AF
:1016A00003FB02F2B2F1807F09D20E4B1A604FF0B9
:1016B000804130BC0A480C4B4260196070476FF0A3
:1016C0007F4308491A460B60F1E700BF00B00D40A8
:1016D000D3C007B02D3FF84F00A00140F3FFFF013A
:1016E00000800D40782D002000A00D40012300EB6C
:1016F0004000800000F1804000F5841041600360EC
:10170000704700BF10B5002482B00B46E48A002168
:1017100041E800F1CDE900034B0254BF1021042140
:1017200044F25220A047DDE9002386460A214FF407
:101730008170F44602B0BDE8104060470023DB8AA8
:10174000002242E800F2520201D41021184704217D
:10175000184700BF08B50B46011E02DB22B143F05B
:1017600030031846FFF7CEFF43F02003F9E700BF30
:10177000034AD2F82838002BFBD0BFF35F8F7047A5
:1017800000000E400021044B044ABFF35F8F43F872
:10179000041B9342F9D170470C080E402C080E40F0
:1017A00010B44FF48D704FF42A64064A064B074973
:1017B0001460D06019605368002BFCDA5DF8044BAC
:1017C000704700BF0080044000A0044000B0FA0051
:1017D000704700BF08B50148FEF7F2FEDCD50010E7
:1017E00038B5054C054DAC4204D254F8043B98473B
:1017F000AC42FAD338BD00BF28D4001068D4001022
:1018000010B40748074C084B084A094904601A609D
:101810008B6832EA0303FBD15DF8044B704700BFCD
:10182000002002407F3BEFEF00300240F6FFF30361
:1018300000000240044BDB6CB3F5004F03D14FF4C2
:101840008022024BDA6470470000115000201150D2
:101850004FF0E022044BD2F8881D0B43C2F8883DBC
:1018600010EE3004704700BF030330006FF060419A
:10187000044B054A19609368DB4333F06043FAD1A7
:10188000704700BF003002400000024010B545F232
:101890005320FFF753FFBDE81040034604201847CC
:1018A00010B545F25320FFF749FFBDE8104003464D
:1018B00001201847FEF73CBF70B52E492E4C2F4E25
:1018C000641AA510442D2A4628BF442230469200AF
:1018D00006F0BAFAB4F5867F47D805F1010CBCF1E1
:1018E000440FC5F143013444C5F1440088BF0120D1
:1018F00005296346224AC4F3800418D9BCF1440F79
:1019000015D8ACB346F82520001B2C4406EB840305
:10191000410803EBC101C3E9002208339942FAD11F
:1019200020F0010398420CEB03051ED06B1C442BE6
:1019300046F8252019D0422D46F8232005F1020350
:1019400013D0412D46F8232005F103030DD0402D7F
:1019500046F8232005F1040307D03F2D46F8232045
:1019600005F1050301D046F82320064B9E6070BDAB
:10197000AC46C9E700000010100100100000002074
:101980001101001000ED00E00023F0B52B4C83B0F6
:10199000C4F88430FFF704FF0122294BDA63636C3B
:1019A000012BFCD10321264A244B11639D6B012D91
:1019B000FCD1052302271E4600242946214A22483D
:1019C0000097FFF7FFFD29463346204A204800963E
:1019D000FFF7F8FD3946224604201E4BFFF784FD31
:1019E0002946224630461C4BFFF77EFD2246082042
:1019F00021461A4BFFF778FD224609202146174B56
:101A0000FFF772FD224606202146134BFFF76CFDBF
:101A1000114B224607202146FFF766FD0420FFF701
:101A2000CBFD0F4DA5FB0035AD0CE0B229460134CE
:101A3000FFF75CFE062CF8D103B0F0BD00000140BA
:101A400000300140002F685900000540008C864797
:101A500000800540001BB70080D1F008006CDC025C
:101A600083DE1B43C1F30A530A4683B3A3F2FF3359
:101A7000002B25DBC3F13403002B2CDD0121C3F146
:101A8000200C00B58646A3F1200001FA00F021FAEF
:101A90000CFC002A40EA0C0001FA03F307DB1EF1FC
:101AA000FF3E42F1FF321EEB030E40EB02025B42AF
:101AB00060EB400C0CEA020103EA0E005DF804FB47
:101AC00000294FF0000007DA4FF000417047184638
:101AD00001F0004170477047004970470000F03F37
:101AE00086B003B451FC0804CDE9020151FC09049D
:101AF000CDE9040151EC0A04CDE9060103BCF0472D
:101B0000BDE800504EEC00C4BDE800504EEC01C4EE
:101B1000BDE800504EEC02C400BD000000B5FFF768
:101B2000DFFF02E010FE30F4F8D441EC100443EC87
:101B3000112400EE010410EE010480EE200451ECAB
:101B40001004704700B5FFF7CBFF02E010FE30F441
:101B5000F8D441EC100443EC112400EE010410EE23
:101B6000210480EE200451EC3004704700B5FFF7EB
:101B7000B7FF02E010FE30F4F8D410B541EC1004C9
:101B800043EC112451EC040453EC0524A0FB024C5B
:101B90005FF0000EE0FB03CEE1FB02CE4CEC2044F4
:101BA0000024E1FB03E444EC30E480EE200451EC3B
:101BB0005004BDE81040704700B5FFF791FF02E008
:101BC00010FE30F4F8D441EC100443EC112451EC35
:101BD0002104A0FB01126FEA820252FB100052FBAB
:101BE00012F252FB1000A0EBD07C53EC04245CFBFF
:101BF00013F153EC1524A1FB022001FB030053EC6D
:101C00004424A2EB000050FB1CF24FEA111312EB2C
:101C1000017043EBE27140EA515020EA915020F00C
:101C2000070053EC7524A0FB023C53EC752400FB29
:101C300003CC01FB02CC53EC0424ACEB824C40EA15
:101C40005C70A0F1010041EC400480EE200451ECF6
:101C50007004704700B5FFF743FF02E010FE30F458
:101C6000F8D441EC100420EE010453EC4124A2FB13
:101C70000201A1FB03014FEAC101A1F1004162FB96
:101C80001122A2FB0201A1FB0301000F40EB011195
:101C900051FB12F0A2EB6002A2FB03014FEA5101DB
:101CA000A1FB01305CEC6404A0EB030353FB12F3D3
:101CB00001EB23714FEA031323F0FF0343F080038A
:101CC000A3FB03C201FB01FCE1FB032CE1FB032CA2
:101CD000ACEB000C43EA1C63A3F10B0341EC503462
:101CE00080EE200451EC9004704700BF00B5FFF770
:101CF000F7FE02E010FE30F4F8D441EC100480EE60
:101D0000220410EEB204704700B5FFF7E9FE02E0CE
:101D100010FE30F4F8D440EC700400EE010410EE34
:101D2000210480EE200451EC3004704700B5FFF729
:101D3000D7FE02E010FE30F4F8D440EC600400EE70
:101D4000010410EE210480EE200451EC30047047B1
:101D500000B5FFF7C5FE02E010FE30F4F8D441EC08
:101D6000800400EE010410EE010480EE400410EE49
:101D70001304704700B5FFF7B3FE02E010FE30F425
:101D8000F8D441EC800400EE010410EE010480EE72
:101D9000400410EE3304704700B5FFF7A1FE02E0E7
:101DA00010FE30F4F8D441EC100443EC112400EEA2
:101DB000010410EE3004C0F30070704700B5FFF767
:101DC0008FFE02E010FE30F4F8D441EC100443EC36
:101DD000112400EE010410EE3004C0F3807070474F
:101DE00000B5FFF77DFE02E010FE30F4F8D443ECBE
:101DF000102441EC110400EE010410EE30F48CBF0D
:101E000001200020704700BF00B5FFF769FE02E027
:101E100010FE30F4F8D443EC102441EC110400EE31
:101E2000010410EE30F42CBF01200020704700BFE9
:101E300000B5FFF755FE02E010FE30F4F8D441EC97
:101E4000100443EC112400EE010410EE30F42CBF1A
:101E500001200020704700BF00B5FFF741FE02E0FF
:101E600010FE30F4F8D441EC100443EC112400EEE1
:101E7000010410EE30F48CBF01200020704700BF39
:101E8000000000000000000000000000DB60BE2831
:101E90004A059193F4D5097F70374D7D66A5D836F4
:101EA00010E4104FEA58947F58F1AEF78E1BC96DBD
:101EB000B8749390BA4B920187647482C77A873F53
:101EC000CF694A2C7D8D20BA21D1AE4B091C673ACF
:101ED00090DF17AD8E75644E7DCED460E21721275A
:101EE0000E4A7EEFFF25FEC7036681F762C4CBFB77
:101EF000479B82D6B39F4DDB6DC2F2C9D98FD1D338
:101F00008BFA97A7B1EE495D5E7CF9FA7DCE41CFA1
:101F1000BAA494E2ECD7FE9A4257E34711CC80155D
:101F2000174B02F01F054FF00107AF405FEA621840
:101F3000A7FB00450026E7FB015603EB8803D3F817
:101F40001090A9FB06A7D3F80C90A9FB05A8E9FB04
:101F50006678D3F8089009FB0688E9FB0578A9FBA9
:101F600004A6D3F8049009FB0588E9FB0478D3F8AC
:101F7000009009FB0488BF1948F100087047000071
:101F8000841E001050EA013208BF41F0004141F4C4
:101F900000210B00020070470BB900200021002235
:101FA00040F20003C3F6F0731CF0020F1CBF104692
:101FB000194670470022002300245FF0004504E129
:101FC0004DF804CD5FF0000C0CF1040C02F104029A
:101FD000FFF7A6FF98EAE879B9F1807F02D2BCF159
:101FE000400FF1D197EAE87741F2A616C0F64636DF
:101FF000A9FB06A04DF21156C4F67E06A7FB06A16A
:10200000E9FB66010626E7FB060109FB0611DCF188
:10201000200A57D421FA0CF320FA0CF201FA0AF93B
:1020200042EA0902A2FB0394A2FB0395E3FB63458A
:10203000A4FB0596A4FB0597E5FB6567F60856EA41
:1020400047764FF0AA39A6FB0967D4EB070675EB74
:1020500045075FEA2739360B56EB075659F17F677C
:1020600017F14057C0B4A0FB0592A1FB0493E1FB1C
:102070006523A2FB0596A3FB0497E3FB65674FF07E
:10208000AA39A2FB09A40025E3FB0945641955F10F
:1020900000054FF08839A6FB0923B4EB131465F152
:1020A0000005B0EB940061EBA501B0EB857061F128
:1020B0000001CCF58064A4F10E0400F082F9BDE8C3
:1020C000C0100CE0CCF58064A4F10E0400F079F9A6
:1020D0005DF804CB002640F20007C3F6F0775FEA14
:1020E000D87868F3000C5FEA6C090FD45FEA6909DD
:1020F00006D31CF0040C57EA4C713000BDE8F087A1
:102100009CEA9C0C51EACC71BDE8F0871CF00404F9
:1021100097EA4477C0B4A6E03CB500F004F830BCC0
:1021200003C40CC530BD11F0004C5FEA5C0C5CF0E0
:10213000004C06E05FEA517C1CF0040C01E05FF00B
:10214000020CC1F30A53A3F2FF32B2F5806F3FF4E1
:1021500019AF12F1200FFFF61FAF012363F31F51D8
:102160002DE9F04702F10C02FFF7DAFE5FEA9874FE
:1021700044F10004A8EB84780CEB440C4CEAD87CC6
:1021800097EAE87798EAE878B8F5800FFFF418AF97
:1021900041F2A619C0F64639A8FB09A04DF2115923
:1021A000C4F67E09A7FB09A1E8FB69015FF00609F7
:1021B000E7FB090108FB0911B1F1007FFFF4FAAE5A
:1021C000CA0E7C4B03EB02133CCB801A994110D40E
:1021D0005FEA6C0636D476101CD200F06CF800F082
:1021E000AFF800F0ECF89CEA9C0C51EACC71BDE829
:1021F000F0875FEA6C0649D4761017D200F058F8E1
:1022000000F0ACF800F0D8F89CEA9C0C51EACC71D4
:10221000BDE8F08700F04FF800F0AFF800F0CCF820
:102220001CF0040C51EA4C71BDE8F08700F040F856
:1022300000F0B2F800F0C3F81CF0040C51EA4C7145
:10224000BDE8F08700F037F8FCB400F096F800F035
:10225000B3F81CF0040491EA4471FCBC03B400F030
:102260006FF800F0ACF89CEA5C0494EA9C0491EAF4
:10227000C4711CF0020F1DBF02460B4603BC0CBC10
:102280001CF0804491EA4401BDE8F08700F010F8AA
:10229000FCB400F081F800F092F81CF0040491EA1C
:1022A0004471FCBC03B400F059F800F085F8DAE79B
:1022B000404261EB4101A1FB0167A0FB01237F08C4
:1022C0004FEA3606F21847F10003A3FB0076E2FB63
:1022D00001760027E3FB01674FF05538A6FB08960F
:1022E0004FF00009E7FB086916EB090659F10007F2
:1022F000861B71EB07074FEA033040EA1250A0FB40
:102300000009E9FB0809A9FB01084FF03330A8FBDD
:10231000000858FB11FA4AF6AA20C2F6AA2060FB70
:102320001A99B2EB491273EBD9635AFB11FA4FF0C9
:10233000C3606AFB108816EB481657EBD8677047E6
:10234000A2FB04804FF00001E3FB0401A6FB058320
:10235000E7FB0534181A64EB01017047A2FB048007
:102360004FF00001E3FB0401A6FB05836442E7FB99
:102370000534181844EB01017047A2FB05804FF0AB
:102380000001E3FB0501A6FB04836D42E7FB043576
:10239000181845EB01017047A2FB05804FF00001C2
:1023A000E3FB0501A6FB0483E7FB0435181A65EB84
:1023B0000101704710240010404261EB410140F2DE
:1023C000F334B1FA81F20C2A0CD2153211FA02F36D
:1023D000C2F12002D04021FA02F12244584141EBDF
:1023E0000251704769B1C2F12B0230FA02F3C2F117
:1023F0002002914090401943A4EB020201EB0251EC
:10240000704701004FF00000A4F12004D9D17047BB
:102410000B5C7325A974F50329B5FA010015FC7F3F
:10242000EB2FAA0054D9440CC8D221061F60DA7FD2
:102430003663E842CFD3D9133C5EEA09F0889D7F2A
:102440002FC46D04D9860A1C1F17FE0DD09E3B7F3A
:10245000A79B50EC3EF5EB23BCE7E611C7EFBD7E32
:10246000D21C9C03B212F12B46F5DC1549771E7E77
:10247000CA057A3DF493F23314C0CB199CAC5F7D4E
:10248000A0A0EF7A1D32193C1D22C61D2F2F7D7C86
:10249000B50FFB1270EF5044530CC1213522787BED
:1024A0005C8D6B4745A0F14B18DC6A2516AD687A48
:1024B000C14069576DD9EA53391636293C2D2F7919
:1024C000DFEA4ED38942B35BD639E02C2526E0778C
:1024D0006950EA31D9071164C0D3C43070625876AC
:1024E000CB5667F3B3A2FD6B1C7E6834227AC774A7
:1024F0000EED7A2F3175E073CCE7FA3727111C7394
:10250000C08EC4FC0E79147C0EA7A33B8ECD417106
:1025100013B7043B8F7B5483D489D23EEBD8856FAD
:102520009A365B13D96F0B8CD4EA9442A3EF516DAA
:102530005F52CA4A26D33994706E0A464005236B0F
:102540008340C441340B0E9C3DB0484907EFF1680D
:10255000BF086DA3FD6179A485F2B14C9D847A66B4
:102560003616F8C8D247E5AB1E22A24F2F6236645A
:10257000ADC9C8D0E1ADFEB32470C35286AFA4612B
:10258000730E73646A35FEBB28F0C555A3A3025FC2
:10259000C6A58CB055B912C40892BA58A394415C30
:1025A00090005354372DB0CB19F46E5BD88E9359ED
:1025B000367C8DA16E3CAAD325022E5EFC32AF562E
:1025C000D0C7A248F619FFDB3253F3607EED925379
:1025D000949AAD7AE1AD22E4CADF8E63C72B7350C3
:1025E000FF15EF19BD85FBEBBB18FA65C7615C4DA4
:1025F000BD960F7E494B4CF4F7816F68E617024A8F
:10260000EB09EF1DFDBD4DFCC4D2B26A13E4B44624
:102610000022002950DA404261EB4101C9B1B1FA10
:1026200081F30B3B17D4D3F1200C30FA0CFC98400B
:10263000994051EA0C011A44524202F2324201EB33
:10264000025141F0004140F2FE739A4238BF704798
:1026500021E011467EE003F1210310FA03FCA3F10F
:10266000010301FA03FCC3F1200320FA03F021FA6D
:1026700003F140EA0C00A3EB020202F2324214D052
:1026800050F1000041EB025141F0004140F2FE7375
:102690009A4238BF70474FF00001A8BFC7F6F071EB
:1026A0004FF00000704700217047EBD350F100005D
:1026B00020F00100E6E70022B9B1B1FA81F30B3B4B
:1026C00016D4D3F1200C30FA0CFC9840994051EA12
:1026D0000C011A44524202F2324201EB025140F222
:1026E000FE739A4238BF704720E0114600F066B88A
:1026F00003F1210310FA03FCA3F1010301FA03FC27
:10270000C3F1200320FA03F021FA03F140EA0C00A0
:10271000A3EB020202F2324212D050F1000041EB70
:10272000025140F2FE739A4238BF70474FF00001E9
:10273000A8BFC7F6F0714FF0000070470021704746
:10274000EDD350F1000020F00100E8E7002880F20E
:1027500035804042B0FA80F30B3B11D4984001EB36
:102760000302524202F2124200EB025141F00041D8
:102770004FF0000040F2FE739A4238BF704713E0FA
:10278000C3F1000330FA03FCC3F120029040A3EB35
:10279000010202F212420CEB025141F0004140F200
:1027A000FE739A4238BF70474FF00041A8BFCFF682
:1027B000F0714FF0000070470021704760B3B0FA2D
:1027C00080F30B3B0FD4984001EB0302524202F21C
:1027D000124200EB02514FF0000040F2FE739A42A9
:1027E00038BF704710E05B4230FA03FCC3F12002AF
:1027F0009040A3EB010202F212420CEB025140F2B4
:10280000FE739A4238BF70474FF00001A8BFC7F669
:10281000F0714FF000007047002170470022A2F2D3
:1028200032425FEA215CACF10103A1EB03515B058D
:1028300013F5800F32D212EB535210D40B2A36DA32
:102840009140D2F1200330FA03F319439040BCF1D8
:10285000000FA8BF7047404261EB41017047203232
:102860000EDD01FA02F3D2F12002D140D04018432C
:10287000BCF1000FA8BF7047404261EB41017047B7
:10288000524282F3050231FA02F00021BCF1000F3E
:10289000A8BF7047404261EB4101704702D0002061
:1028A0000021704750EA013118BF4FF0000C6FF063
:1028B000004101EBDC716FEAEC70704708B500F085
:1028C000F7F8DFED047A07EE100A67EE277A17EEC5
:1028D000900A08BD3BAAB83F0022002980F2A980D7
:1028E000404261EB4101B1B3B1FA81F3083B16D428
:1028F000994010FA03FCC3F1200320FA03F040EAE8
:102900000100A2EB0302C2F195021CEB0C0C40EBA0
:10291000C25040F0004020D0FE2A16D2704703F18A
:10292000210311FA03FC5CEA000CC3F1210321FA34
:1029300003F0A3EB020202F1B50240EBC25040F0FB
:1029400000400AD0FE2A38BF70474FF00040A8BFB1
:10295000CFF68070704711460AE028BF20F00100D2
:10296000FE2A38BF7047F0E7002880F233804042EB
:10297000B0FA80F3083B0CD4984001EB0302C2F19B
:10298000950200EBC25040F00040FE2A38BF70476D
:1029900013E003F1210310FA03FCC3F1210320FA31
:1029A00003F0A3EB010202F1950240EBC25040F0AC
:1029B000004008D0FE2A38BF70474FF00040A8BF43
:1029C00040F0FF40704728BF20F00100FE2A38BFCA
:1029D0007047F2E720B3B0FA80F3083B0AD498407E
:1029E00001EB0302C2F1950200EBC250FE2A38BF90
:1029F000704711E003F1210310FA03FCC3F1210336
:102A000020FA03F0A3EB010202F1950240EBC25061
:102A100007D0FE2A38BF7047ACBF4FF0FF40002000
:102A2000704728BF20F00100FE2A38BF7047F3E747
:102A3000002289B3B1FA81F3083B14D4994010FA0B
:102A400003FCC3F1200320FA03F040EA0100A2EBEB
:102A50000302C2F195021CEB0C0C40EBC2501ED0DD
:102A6000FE2A14D2704703F1210311FA03FC5CEA39
:102A7000000CC3F1210321FA03F0A3EB020202F1DF
:102A8000B50240EBC2500AD0FE2A38BF7047ACBF37
:102A90004FF0FF40002070471146FFF79BBF28BF53
:102AA00020F00100FE2A38BF7047F0E70000000068
:102AB000B0F1FF4F3ED2C1153ED04FF0010262F39C
:102AC000DF5038BF400026A393EC034AAFF21C034B
:102AD00003EB104323F00703D3E9002300FB02F0CC
:102AE00040EC103AFAEEC00A20EEA01A61F17E0125
:102AF00060EE811AC90521EE012A40F6FC3221EE72
:102B0000041AC5F6B90261EEA41A51FB12F122EEC5
:102B1000052A03EE901A71EEC21AFAEEC53A31EEAA
:102B2000611A70EEC10A30EE200A30EE230A10EE70
:102B3000100A704705DC0BD010F1FF4F09D310F5D8
:102B4000000F40F4800003D840F20000CFF6C070C0
:102B5000704740F20000CFF680707047AFF30080FE
:102B60000000003FABAAAA3E0000803E000000002B
:102B70005501000001CB92BE48010000C3C87DBED4
:102B80003B010000685F54BE2F010000C7992CBEB6
:102B9000250100002C3C0ABE1A0100002F1AC6BDF8
:102BA00011010000C2AC83BD08010000D814FCBCB8
:102BB0000001000000000000F8000000EC0A023DE7
:102BC000F10000008E51773DEA0000009806B83D04
:102BD000E40000003B39ED3DDD000000088B163EAF
:102BE000D800000003FA2D3ED2000000D7D24A3EA2
:102BF000CD000000DE7F633EC8000000E3C87C3EDD
:102C0000C3000000E65A8B3EBF00000084F7953EEB
:102C1000BA0000006E8CA33EB6000000EFADAE3EE1
:102C2000B2000000C40EBA3EAE000000CDB1C53EF9
:102C3000AB0000005F99CE3E10B5044604F03EFEA6
:102C400028B10346034A2344934200D810BD0248EA
:102C5000FDF7B6FC00000820E8D500109A4238BF06
:102C600088547047704700BF2DE9F84F9A460D9B76
:102C700017469A0706468B46DDF8288011D1DDE914
:102C80000B3293420DD213463C460B9A9D1A3D449B
:102C900022465346594620200134B047AC42F7D172
:102CA00000E03D460B9B73B108EB030404EB050900
:102CB000A9EB040214F8010D53465946B0474445A8
:102CC000F6D10B9B1D440D9B9B070ED50C9BEF1B58
:102CD000BB420AD91C462A46534659462020013792
:102CE000B047BC4205F10105F5D82846BDE8F88F8C
:102CF0002DE9F04F0F9EDDF824E016F0020F0A9C3C
:102D00009DF82C900E9DDDE90C872CD1002D74D1FF
:102D1000BC4206F0010B80F0CB801F2C88BF202422
:102D200000F2C68004F1FF3C4FF0300AF44401E0A9
:102D3000202C04D00134A7420CF801AFF8D8BBF125
:102D4000000F10D0A5420ED9202C2DD004F1FF3C4D
:102D50004FF0300AF44401E0202C25D00134AC427D
:102D60000CF801AFF8D116F0100F38D016F4806FC0
:102D700026D10CBBB8F1100F7FD0B8F1020F00F0D4
:102D8000928030248EF800400124B9F1000F2BD03E
:102D90002D270EF804700134CDE90B56CDE909E476
:102DA000BDE8F04FFFF760BF16F0100F4FF02004A2
:102DB000F2D016F4806F03D1A74249D0A54247D084
:102DC000B8F1100F4ED0B8F1020F39D0202CE3D05B
:102DD0004FF0300C0EEB040787F800C00134202CB4
:102DE000DAD0B9F1000FD3D177071DD43707D3D587
:102DF00020270EF804700134CEE716F0010B0DD039
:102E0000B9F1000F22D116F00C0F1FD1BC4299D29C
:102E10001F2C87D9202DC7D82024A4E7BC42A2D2DA
:102E20001F2C7FF67FAFF7E72B270EF804700134D5
:102E3000CDE90B56CDE909E4BDE8F04FFFF714BF2B
:102E4000202CA9D00EEB0407013440E0013DDDE762
:102E5000671E8FD0B8F1100F2FD0B8F1020F35D008
:102E60003C46B5E7B7060FD4202C95D00EEB040CEA
:102E7000013478278CF80070A8E7B4060ED47824C3
:102E80008EF800400124A3E7202C85D04FF0580C89
:102E90000EEB040787F800C0013497E758248EF83A
:102EA0000040012494E762248EF8004001248FE75B
:102EB000BBF1000F08BF002555E716F0200FA4F165
:102EC0000204E3D10EEB040C3C46D2E777444FF00A
:102ED000620C87F800C079E700B9704701F038BB91
:102EE00010B1D1E900311847704700BF0000000061
:102EF0002DE9F04F2DED048B9BB02A9CDDE928894C
:102F000009942B9C83461D460D940C920C46424618
:102F10004B4640464946DDF8B0A0FEF741FF002889
:102F200040F0D680404649464FF0FF32744BFEF7E2
:102F300097FF002840F0CC80404649464FF0FF32D2
:102F40006FF48013FEF750FF002840F0C180404628
:102F5000494600220023FEF747FF002840F0C181C8
:102F6000CDE90A89DDE90A231F461AF48063164673
:102F70001193099B08BF0623099356EA070340F003
:102F8000C3801AF4006E00F0A4819FED5B7B0023E8
:102F90008DED0E7B1093099B109A00269342D2BFB1
:102FA0000023A3EB020E0EF1FF3309934AF4806A6B
:102FB00010960D9BB34294BF00279F1B1AF002038B
:102FC000119302D0002E18BF0027109B3BB1DDE902
:102FD0000A01DDE90E23FEF7F3FDCDE90A014046C3
:102FE000494600220023FEF7FFFE30B1DDE90A0169
:102FF000024601F10043CDE90A239DED0A7B099BBE
:103000008DED007B02932AF40063049321462B4646
:1030100058460C9A039700F09BF98046002E51D039
:103020001AF0200F424614BF452065202B4621464A
:10303000D847109A0DF1480C82EAE273A3EBE273D1
:103040004FEAD27E002762461846DFF8B89008F1B2
:10305000010806F1FF3A01E0202F0FD00646A9FB38
:103060000031C90801EB8103A0EB43033033092E83
:10307000084607F1010702F8013BEDD805230020BF
:1030800006930A234246CDE9033021462B46584693
:10309000CDE9017ECDF814A0CDF800C0FFF728FEE1
:1030A000119B804673B10C9B0D9FC61AB74209D97C
:1030B00042462B46214620200136D847B74208F128
:1030C0000108F5D840461BB0BDEC048BBDE8F08F7D
:1030D0000D9B21462B9358462B46099C0C9ACDE913
:1030E0002889CDF8B0A02A941BB0BDEC048BBDE8B4
:1030F000F04F00F02DB900BF0000000000000000FC
:10310000FFFFEF7FCDCCCCCCC7F30A50A0F2FF304D
:10311000FEF7FEFD8AA3D3E90023FEF72BFD8AA369
:10312000D3E90023FEF7FEFCC7F3130341EC180BB1
:1031300043F07F51304600227B4B41F44011FEF7B3
:1031400005FD6BA3D3E90023FEF714FD02460B46F1
:1031500051EC180BFEF7E6FCFEF7FEFD1090FEF7B3
:10316000D7FD65A3D3E9002306460F46FEF702FD0F
:1031700000226E4BFEF7D6FCFEF7EEFD0346394605
:1031800030460E935EA3D3E90023FEF7F3FC064618
:103190000E980F46FEF7BCFD5BA3D3E90023FEF7B4
:1031A000E9FC02460B4630463946FEF7CFFC0246A4
:1031B0000B4606460F46FEF7DDFC324641EC180B87
:1031C0003B4630463946FEF7ADFC002241EC190B78
:1031D000574B51EC180BFEF7F3FC0022554BFEF752
:1031E000A1FC02460B4651EC180BFEF7E9FC00224D
:1031F000514BFEF797FC02460B4651EC180BFEF7BD
:10320000DFFC32463B4606460F4600204FF0804129
:10321000FEF79CFC02460B4630463946FEF782FC20
:1032200002460B4651EC190BFEF7CAFC0022434B39
:10323000FEF778FC0E9B002203F2FF363305FEF703
:1032400099FC06460F46DDE90A0132463B46CDE9C8
:103250000E67FEF7C9FD60BB31463A46109B6333EB
:10326000C72B34BF042605261AF4006F3FF4A1AE25
:1032700051EA02033FF48FAEDDE90A0124A3D3E94A
:103280000023FEF7D9FD48B1DDE90A0122A3D3E905
:103290000023FEF7A9FD00287FF47DAE099B002BDB
:1032A0003FF487AE119A002A3FF483AE013B0993A5
:1032B0007FE6109B0022013B109330461D4B3946A0
:1032C000FEF77EFC0B4602460146CDE90E231A4668
:1032D000C4E79FED137B04268DED0E7BCDF840E017
:1032E00067E609F10043CDF828800B933AE600BF6A
:1032F00061436F63A787D23F71A379094F930A4057
:103300001655B5BBB16B0240EF39FAFE422EE63FCF
:103310002D431CEBE2361A3F0000000080842E4152
:1033200000000000000000000000F83F0000E03F47
:1033300000002C4000002440000018400000F03F36
:10334000FB799F501344D33FB3C8608B288AC63F94
:103350002DE9F04F2DED028B95B0DDE92245069564
:10336000249DDDE92067CDE90701CDE90923304639
:1033700032463B4639460595FEF712FD002840F0DF
:10338000C481304639464FF0FF326FF48013FEF7A8
:103390002BFD002840F00D81304639464FF0FF32BA
:1033A000BF4BFEF75DFD002840F0DD80B8A3D3E9F8
:1033B000002330463946FEF753FD002840F0C18017
:1033C000B5A3D3E9002330463946FEF70DFD0028AA
:1033D00040F0B7803046394600220023FEF704FD56
:1033E000002840F0DA802B460B9013F4806F08BF62
:1033F00006243021A2460CABA4F1200206E00AF11B
:10340000FF3A524503F8011B00F03181BAF1090F70
:10341000A4EB0A05F3D839463046FEF79DFCA14BD4
:10342000044603EBCA0393ED008BFEF771FC0246E2
:103430000B4630463946FEF789FB53EC182BFEF756
:1034400099FB89468046FEF799FC8346FEF772FC9D
:1034500002460B4640464946FEF778FB0022924B57
:1034600080468946FEF7FCFC002800F0F1800BF155
:10347000010B5846FEF75EFC02460B4651EC180B5A
:10348000FEF7C6FC10B14FF0000B0134BAF1000F8B
:1034900040F09A802046FEF73BFC02460B46304641
:1034A0003946FEF753FB00227F4B06460F46FEF7D8
:1034B0009BFC40B93046394600227B4BFEF7D0FCDE
:1034C000002800F016816A1E0CAB78491A44202DA2
:1034D0004FEAE47300F0938081FB0460C3EBA00328
:1034E00003EB8300A4EB400404F1300001351C46DB
:1034F00002F8010F002BEAD1059B03F00303012B17
:1035000000F08380202D0AD00B9B002B00F0B180AF
:103510002D2205F150036B4403F8202C0135059B47
:103520000CAC0393069B0094CDE90153DDE9070140
:10353000DDE90923FFF798FB15B0BDEC028BBDE870
:10354000F08F059BCDE92067DDE907012493069BF9
:1035500022942393DDE9092315B0BDEC028BBDE86D
:10356000F04FFFF7C5BC05F004042395504D002C27
:10357000504C18BF2C46DDE9070120940CBF0324F2
:103580000424069B2293DDE90923219415B0BDECA8
:10359000028BBDE8F04FFFF767BB01213B46324687
:1035A0000B9100200021FEF7D1FA2B4606460F466C
:1035B0001BE7069C239522940424DDE90923DDE919
:1035C00007013D4D2095E0E7681E0CAB3B4F1844CA
:1035D0000FE0A7FB0B32D20802EB8203ABEB4303F5
:1035E0003033BBF1090F00F8013F69D9B246934669
:1035F0000D46202D0AF1FF3605F10101E9D1059BA9
:10360000202503F00303012B89D1069B002B3FF4F7
:1036100079AF0B9B1BB9059B13F00C0F02D0069BD7
:10362000013B0693069BAB427FF66CAF202D0DD07D
:1036300030226B1E0DEB02010B44069901358D42C1
:1036400003F8012F3FF45EAF202DF7D1202566E768
:10365000404649460022144BFEF7C6FB00287FF483
:1036600015AFBBF1000F4BD10BF1010B0EE720257D
:10367000D1E6059B5A0741D41B077FF550AF2022A6
:1036800005F1300313446B4403F8202C013546E761
:103690000000000065CDCD410000000065CDCDC12A
:1036A000FFFFEF7FA0D600100000E03F6766666670
:1036B0008CD6001088D6001098D60010CDCCCCCC7B
:1036C00020299CD05EB30CAB5A1930200D46013531
:1036D000202D02F8010F92D0EB430B4413EB0A0F9D
:1036E000F5D12E2205F150036B4403F8202C01354F
:1036F000E9E6E1077FF5E7AE0134E4E62B2208E7CF
:103700001BF0010F3FF4C2AEAEE7069C2395229456
:10371000044D0324DDE90923DDE9070152E70D46E5
:10372000DFE700BF94D600102DE9F04F9BB0249C3A
:10373000844D0994844C0F1E18BF83462560187869
:10374000824D904608BFAB46002800F0C4821C465C
:103750004FF0000A0AE0524643463946D8470AF17C
:10376000010A01342078002800F0C9802528F2D110
:103770000021631C1C4613F8010BA0F12002102A43
:103780000AD8DFE802F03C090939090909090909E1
:103790000936093309093000A0F13003092B40F242
:1037A00090802A2800F0B98000252E2800F098800B
:1037B00000230A93A0F16803122B27D8DFE813F047
:1037C0001F0126001A0126002701260026002600D8
:1037D00026002600260026002200260026002600BD
:1037E00026002600220041F00101C3E741F002015A
:1037F000C0E741F00401BDE741F01001BAE741F034
:103800000801B7E7607841F480710134A0F1250325
:10381000532B00F28E80DFE813F01C018C008C002B
:103820008C008C008C008C008C008C008C008C0038
:103830008C008C008C008C008C008C008C008C0028
:103840008C008C008C008C008C008C008C008C0018
:103850008C008C008C008C008C00C5010201C5011D
:103860008C008C008C008C008C008C008C008C00F8
:103870008C008C008C008C008C008C008C008C00E8
:103880009B008C008C008C008C008C008C008C00C9
:103890008C008C009B008E019B00C5010201C501BC
:1038A0008C009B008C008C008C008C008C009B009A
:1038B0006E018C008C0026018C009B008C008C001B
:1038C0009B00002505EB850500EB450514F8010F6D
:1038D000303DA0F13003092BF4D92E287FF468AFD6
:1038E000607841F48061A0F13003092B04F10102FA
:1038F00040F23F812A2800F04B81144658E7544695
:10390000D04501D808F1FF3A4346524639460020D7
:10391000D84720461BB0BDE8F08F099B607853F86C
:10392000045B0134002DBCBF41F002016D420993DC
:103930003BE752464346394601340AF1010AD8476B
:1039400010E700BF29370010742D0020652C0010EF
:10395000782800F07A81582800F0C0816F2800F0A4
:103960000E82622800F06A8321F0100369284FF06C
:103970000A090B9340F00682490500F16D810B9B0B
:1039800013F4007040F0088213F4807140F0E38279
:103990005E06099A00F1498213F0800F52F8043B49
:1039A00000F097831BB2099283EAE372A2EBE37201
:1039B00092B2D80F0D90002B40F065820B9820F04A
:1039C000100340050B9340F15E8212AB0C935246FC
:1039D0000B9BCDE905530A9BCDE903930D9BCDE9E4
:1039E00001130C9B0093434639465846FFF780F974
:1039F00082467EE0607841F40071013406E7607829
:103A0000682800F0638141F080010134FEE66078AF
:103A10006C2800F0568141F480710134F6E60A9B6F
:103A2000462808BF41F020010293099BCDE90351CC
:103A3000073323F00705B5EC027B5246434639466F
:103A400058468DED007B0995FFF782FC01348246D4
:103A500088E60AF10100524643468246394625204F
:103A60000134D8477EE6099B53F8046B0D930A9BFB
:103A70003078002B00F0D880002800F032835A1EE6
:103A80000132B146324401E0914503D019F8013FBB
:103A9000002BF9D1A9EB0603099311F480630B9372
:103AA00005D0DDE90932934228BF1346099311F08E
:103AB00002030C9300F04981002800F034810B9B35
:103AC000002B00F0B7800A9B52465344994608E009
:103AD00043463946D84716F8010F0AF1010A10B1DA
:103AE0005246D145F4D10C9B002B40F01C810D9B1C
:103AF0000993013436E6099850F8043B002B74D042
:103B000041F0210512AA164600210C9202E020295C
:103B100074D0134603F00F0C6246BCF1090F94BF3A
:103B2000303237320F2B06F8012B01F101014FEA39
:103B30001312ECD862E08B0740F1DA80DDF82490B4
:103B4000524659F8040B43463946C0B2D847012DB6
:103B50000AF1010688BFAA4440F2918132464346E9
:103B6000394620200136D8475645F7D1CDF8249064
:103B7000BFE7002303EB830300EB430312F8010FBD
:103B8000303BA0F13004092CF4D914460A9311E615
:103B9000099BA07853F8042B0234099322EAE273BC
:103BA0000A9307E600F0DF03472B08BF00F0FD0093
:103BB0000A9B08BF41F40061452808BF41F020017D
:103BC0000293099BCDE90351073323F00705B5ECB8
:103BD000027B52464346394658468DED007B099597
:103BE000FFF786F901348246BCE521F010054E0549
:103BF00045F0210586D5194612AB0C930A9B524617
:103C000004930C9B019100930823059310230393C5
:103C10000023099002933946434658460695FFF71C
:103C200067F8013482469DE56FF0010200287FF4B9
:103C300027AF31E7524643463946D84716F8010FB9
:103C40000AF1010A0028F5D14DE74FF0100921F0E3
:103C50000C0349050B9303D50B9B23F001030B9336
:103C600069283FF48CAE64283FF489AE0B9B13F4B3
:103C7000007040F0528113F4807140F0C6815E06FE
:103C800040F1F080099B53F8042B0993D2B2002A2B
:103C900040F01E810B9820F0100340050B9340F17B
:103CA0001781114612AB0C930B9B0191CDE9055383
:103CB0000A9BCDE9039352460C9B00930023029389
:103CC00091E6A07841F4407102349FE5A07841F07C
:103CD000C00102349AE50446824611E621F00C0345
:103CE00043F020030B934B054FF01009B4D4BDE70C
:103CF000012D40F2F4810AF1FF331D445246434640
:103D0000394620200AF1010AD847AA45F6D1099E72
:103D1000434656F8040B2A463946C0B2D84705F147
:103D2000010A0996E5E6099B56469D427FF6DFAEFD
:103D300005EB0A00A0EB030A324643463946202031
:103D40000136D8475645F7D1D1E6099A954202F196
:103D5000010340F2C88105EB0A09A9EB02095246AA
:103D60004346394620200AF1010AD847CA45F6D110
:103D700030786B1C099300287FF4A1AEB7E64FF0B2
:103D800008090B91642818BF0B997FF460AF0B9B57
:103D90005A053FF561AFF2E5099B073323F00703AE
:103DA0001A4610465B6850F8082B002B1946164639
:103DB000099060DB0846D90F13430D913BD00B9B54
:103DC000002113F0200F14BF4123612312AA0A3BE4
:103DD000CDE90EA51094CDF844B00D4614468246A8
:103DE0009B460C9203E0202D17D006468A463046AB
:103DF0004A465146002309F0FFFAD2B2092A02F1DD
:103E0000300388BF02EB0B03DBB24E4504F8013BE5
:103E10007AF1000305F10105E5D22A46DDF838A064
:103E2000109C0F9DDDF844B00FE052F8043BDBB26C
:103E300009921A46BDE50B9A22F0100352050B9326
:103E4000BDD500231A4612AB0C930B9B0192CDE912
:103E500005530A9B5246CDE903930D9B02930C9B9D
:103E60000093C0E513F0800F099B53F8042B0993CE
:103E700018BF92B20BE7564263EB43019AE7B24692
:103E8000CDF8249035E60B9B13F0200F14BF4FF0B4
:103E9000410E4FF0610E12AB9C460C93AEF10A0E30
:103EA00003E020293FF493AD3246B2FBF9F609FB5B
:103EB0001620C3B2092803F130008ABF7344C3B28D
:103EC000DBB24A450CF8013B01F10101E9D27EE584
:103ED0000B9B13F0200F14BF4FF0410E4FF0610EFB
:103EE00012AB9C460C93AEF10A0E03E020293FF47E
:103EF000DBAE3246B2FBF9F609FB1620C3B2092845
:103F000003F130008ABF7344C3B2DBB24A450CF8F8
:103F1000013B01F10101E9D2C6E6099B073323F019
:103F200007035A6853F8086B1046099356EA0203D0
:103F300035D10B9A22F0100352050B932FD5002395
:103F40001A4612AB0C930B9B0192CDE905530A9BC9
:103F5000CDE90393AFE6099B1A4652F8043B0D9254
:103F6000D90F83EAE372A2EBE3720991002B68D1C7
:103F70000B9921F010030B934B0562D512AB0C93F8
:103F80000B9B5246CDE905530A9BCDE90393099B50
:103F9000CDE901030C9B00930D9B099323E50B9B3B
:103FA000002113F0200F14BF4123612312AA0A3B02
:103FB000CDE90DA50F94CDF840B00D4614468246CC
:103FC0009B460C9203E0202D17D006468A463046C9
:103FD0004A465146002309F00FFAD2B2092A02F1EB
:103FE000300388BF02EB0B03DBB24E4504F8013B04
:103FF0007AF1000305F10105E5D22A46DDF834A087
:104000000F9C0E9DDDF840B09DE7099B53F8042BF3
:104010000993002A39D10B9921F010030B934B051A
:1040200033D512AB0C930B9B5246CDE905530A9B3B
:104030000190CDE903930C9B00933FE64FF00209FA
:104040009FE60B9B13F0200F14BF4FF0410E4FF073
:10405000610E12AB9C460C93AEF10A0E02E02028D2
:104060008ED03246B2FBF9F609FB1621CBB20929F4
:1040700003F130018ABF7344CBB2DBB24A450CF87E
:10408000013B00F10100EAD27AE70B9B13F0200F0D
:1040900014BF4FF0410E4FF0610E12AB9C460C93D3
:1040A000AEF10A0E02E02028BDD03246B2FBF9F68E
:1040B00009FB1621CBB2092903F130018ABF7344F1
:1040C000CBB2DBB24A450CF8013B00F10100EAD269
:1040D000A9E7099283EAE372A2EBE37269E4554629
:1040E00015E60990D9E4099300287FF4E8ACFEE4D2
:1040F0000EB410B585B007AC54F8043B01464FF040
:10410000FF32009404480394FFF70EFB05B0BDE8AE
:10411000104003B0704700BF5D2C001070B594468E
:104120001E4605460C4684B04FF0FF32634602A996
:1041300000960348CDE90254FFF7F6FA04B070BDCB
:10414000E12E00100FB410B50E4B84B006A91C6808
:1041500051F8043B03915CB100914FF0FF3202A98A
:104160000948A047012004B0BDE8104004B07047E2
:10417000184600F02BFA204604B0BDE8104004B009
:10418000704700BF742D0020D92E001010B5094BC8
:1041900084B01C684CB1034600914FF0FF3203A974
:1041A0000548A047012004B010BD00F00FFA2046DA
:1041B00004B010BD742D0020D92E001000BEFDE704
:1041C000074A0346106838B1064903448B428CBF46
:1041D0004FF0FF3013607047034908461160F3E762
:1041E0007029002000000820D82D00200B46114621
:1041F00028B9044A1846D2E9002300F055B94FF017
:10420000FF307047B0D50010431E012B09D810B500
:104210001446084601230022214600F0D1F820462A
:1042200010BD4FF0FF3070474FF0FF30704700BFB8
:104230004FF0FF30704700BF4FF0FF30704700BFB6
:1042400002288CBF00200120704700BF08B5FFF78F
:10425000B5FF00BF144600B5024683B008461946B4
:104260004CB1064D0346019405480095FFF76AFFDF
:104270000120FFF7A3FF034D2C46F3E7F0D6001013
:1042800000D70010FCD6001038B5064D064CFDF7DF
:10429000A7FAAC4204D254F8043B9847AC42FAD394
:1042A00038BD00BF70D4001068D400100368084601
:1042B00011461847437D2DE9F04782460F46914647
:1042C000002B44D0002A2ADD002401252046DFF8F7
:1042D0008C804E1E2CB3337816F8012FA3F10D03FA
:1042E000B3FA83F30A2A4FEA531320D02B46994599
:1042F00004F1010405F10105ECDC814505DDA9EBC4
:104300000001DAF80030384498474F4417F8013C70
:10431000A3F10D03B3FA83F35B098AF81430BDE807
:10432000F08716F8012F9AF814300A2ADED1002BF4
:10433000DCD1A04204DA211ADAF800303844984778
:1043400040460221DAF8003098472846CEE7384642
:10435000DAF800301146BDE8F047184730D70010B2
:104360000B682DE9F041802B0D46064605D05A1CFE
:104370002B442A601E71BDE8F0810F4B1C68A4B16C
:104380000E4F01F1040801E0246974B12368002B89
:10439000FAD03B680BB1A342F6D1204641462A68C9
:1043A000FFF788FF2469002CF0D1002301222B4461
:1043B0002A601E71BDE8F081642900206C2900206C
:1043C0002DE9F04782B00D46924699460746FDF723
:1043D00049F82F4A821841F10003002BBCBF4FF06F
:1043E000FF326FF000432B4809F016F86B1C804633
:1043F00003D1384604F01EF80546274B274E1C68AB
:10440000274BB9F1000F08BF1E46B4B1BAF1000F37
:104410001AD1DFF8909001E0246974B12368002B71
:10442000FAD0D9F800300BB1A342F5D120462A4684
:104430003946B0472469002CF0D1B8F1000F1FD1E4
:10444000284602B0BDE8F0874FF00A0ADFF8549022
:1044500002E02469002CF0D02368002BF9D0D9F8B1
:1044600000300BB1A342F4D120462A463946B0476A
:10447000204601220DF107018DF807A0B047E8E7BB
:10448000044808F0BDFF284602B0BDE8F08700BF31
:1044900040420F006821002064290020B54200102E
:1044A000AD4200106C2900202DE9F04F07460E4662
:1044B000984683B0DFF860B0DFF860A0DFF8609066
:1044C0000192DBF8004014B911E024697CB1DAF8FC
:1044D00000500DB1A542F8D1A368002BF5D03146AC
:1044E000384698470028F0DD03B0BDE8F08FD9F8D2
:1044F000243098450BD8D9F8282001998A4201D256
:10450000984504D06FF0010003B0BDE8F08F0120A2
:104510000021FCF7B1FFD4E7642900206C290020BA
:1045200000000B40084A136823B90AE003F11002A7
:104530001B6933B19842F9D129B90369136001614C
:10454000704701B1106070476429002000F0CABABA
:10455000F0B583B006468DF80700FCF783FF174AD5
:10456000821841F10003002BBCBF6FF000434FF0F5
:10457000FF32134808F050FF124B07461C689CB1ED
:10458000114D01E024697CB12368002BFAD02B681F
:104590000BB1A342F6D1204601220DF10701FFF72E
:1045A00089FE2469002CEFD117B9304603B0F0BD65
:1045B000034808F025FF304603B0F0BD40420F002D
:1045C00068210020642900206C29002038B50446A9
:1045D00003F030FF012305461A4620462946FFF71F
:1045E000EFFE084B1C682CB163682BB19847246917
:1045F000002CF9D1284638BD2469002CF4D1284676
:1046000038BD00BF642900202DE9F041A2B0044666
:104610000D46FCF727FF274A0026821841F10003C8
:10462000002BBCBF4FF0FF326FF00043224808F070
:10463000F3FE2B4607462246204801A90196FFF7C4
:104640006DFD019B06467BB91D4B1C682CB1636850
:1046500043B198472469002CF9D10FBB304622B0F2
:10466000BDE8F0812469F1E7DFF85480D8F8005004
:10467000EDB1144C01E02D6975B12B68002BFAD017
:1046800023680BB19D42F6D12846019A02A9FFF793
:1046900011FE2D69002DF0D1D8F800400195D5E725
:1046A000054808F0ADFE304622B0BDE8F081019526
:1046B000D3E700BF40420F00682100206143001093
:1046C000642900206C2900200FB400B583B004A930
:1046D00051F8040B0191FFF797FF03B05DF804EB6D
:1046E00004B07047704700BF0022014B1A7070473A
:1046F000D42D00204B79FF2B0BD1887948B9CB7989
:10470000012B07D1082A05D9034B8A7809201A7092
:1047100070470020704700BFD42D00200120704753
:10472000012908D110B5124B0C461B78918899428B
:1047300003D0002010BD012070475378012B08D012
:10474000022BF6D1002164220846FCF781FF2046A7
:1047500010BD5188CB054BBF4A0A4A0A10464FF09C
:10476000FF3002F0010201F07F01FCF7F3FF00BF10
:10477000D42D00200048704754D70010012907D1DC
:104780005378012B02D19388072B03D00020704768
:10479000012070471146A623014A01F057BA00BF15
:1047A00078D700100346012201481A70704700BFF5
:1047B00034D7001008B50B68B3F5966F00D008BD6C
:1047C00000224FF0FF301146FCF7C4FF024A034BB2
:1047D00010601960704700BF0429002008290020DC
:1047E000184B70B51A68002A28D0EFF3108172B602
:1047F000D2E8CF4F0120002CFAD1C2E8440F002CA0
:10480000F6D1BFF35F8F00220F4C186859602270F9
:10481000C0E88F2F81F31088002400250B4E3078DC
:10482000FBF7C8FF20B9002400252046294670BDAB
:104830003078FBF7CFFF2046294670BD4FF47A74DD
:104840000025EBE7802D0020D62D0020D52D00205F
:10485000014B1878FBF7BEBFD52D002038B50446B4
:1048600000200D4601F03AFB90B3002001F04CFB14
:1048700070B3FCF7F7FD184A821841F10003002BD2
:10488000BCBF4FF0FF326FF00043144808F0C4FD86
:10489000F0B1002001F022FB58B900214FF0FF30A9
:1048A00000F01CFD6FF002040C4808F0A9FD204642
:1048B00038BD002001F028FB0028EED021462A4612
:1048C000002001F02DFB041E08BF6FF00204EBE78F
:1048D0006FF00204EBE700BF40420F00B42D002050
:1048E00008B5FCF7BFFD0F4A821841F10003002B09
:1048F000BCBF4FF0FF326FF000430B4808F08CFD57
:1049000070B14FF0FF30002100F0E8FC002001F012
:104910004FFB0028F5D1BDE80840034808F070BD02
:1049200008BD00BF40420F00B42D00202DE9F84320
:1049300007460E46FCF796FD344A821841F1000303
:10494000002BBCBF4FF0FF326FF00043304808F03F
:1049500063FD08B9BDE8F883002001F0BFFA002824
:1049600049D0002E42DD0025DFF8A880DFF8A890AE
:1049700013E02246002001F05FFB002104464FF0C7
:10498000FF3000F0ABFC002001F012FBFCF76AFDE9
:10499000C8E900012544AE4228DD002001F070FB8B
:1049A000741B8442A8BF04467919002CE1D121462A
:1049B0004FF0FF3000F092FC204601F0F9FA20465B
:1049C00001F08CFA90B1204601F05AFB0028E2D1A8
:1049D000FCF748FDD8F80030D8F8042013EB0903A1
:1049E00042F10002834272EB0103D4D20848BDE8D1
:1049F000F84308F005BD00200021064BC3E9000183
:104A0000BDE8F843024808F0FBBC00BF40420F007D
:104A1000B42D0020F022002020A1070030B5002195
:104A200085B02A4808F0FCFCF0B9294B1A68CAB1D5
:104A3000EFF3108172B6D2E8CF5F0124002DFAD1D6
:104A4000C2E8454F002DF6D1BFF35F8F214C1D68A2
:104A500022785960D3B201222270C5E88F0F81F30A
:104A60001088CBB105B030BD00214FF0FF3000F011
:104A700035FC002001F048FA0446144808F0C0FC58
:104A8000002CEFD0144B1B68002BEBD0134A10689E
:104A900005B0BDE830401847FCF7C2FA0446FCF701
:104AA000E1FC10F57A7241F1000301250021204656
:104AB0000B4C002BBCBF4FF0FF326FF00043CDE931
:104AC00001150094FCF7B0FA05B030BDB42D0020FC
:104AD000802D0020D62D0020042900200829002048
:104AE000E14700104FF0504330B585B01C68FCF72B
:104AF00097FAFCF7A9FBA04202D0002005B030BD18
:104B00000021274B08461B7801F088FD25480368E3
:104B1000002B42D00120FBF7FDFF0346224C234926
:104B2000C0B22370FBF774FE20780121FBF72CFE46
:104B30000E20FBF75DFE18BB1D4B0125C3E90000ED
:104B4000FCF76EFA0446FCF78DFC10F57A7241F121
:104B5000000300212046174C002BBCBF4FF0FF3252
:104B60006FF00043CDE901150094FCF75DFA0028D1
:104B7000C3DB01211048FFF7D5FC012005B030BD93
:104B80000120FBF7BDFD01460948FCF723F8002290
:104B90000E200A49FBF76CFEEBE7FBF7FFFFB9E7D6
:104BA0003CDF0010B42D0020D52D00201D4A001040
:104BB000802D0020E14700107C1700205148001094
:104BC00000487047C0D80010004870476CD80010EB
:104BD00038B51A4B04461A782AB344B940F2094250
:104BE0004FF44173164D6A8015482B8038BD052C53
:104BF00021D8144B124D53F82410284600230139B4
:104C000003E0132B20F8022F12D011F8012F5FFAC6
:104C100083FC0133002AF4D10CF10103DBB25B0009
:104C200043F44073E0E71121184600F025F8D4E77B
:104C30004FF44A73D8E7002038BD00BFBC2D0020D8
:104C40003C290020D4D8001000B545F247308BB085
:104C5000FCF774FD01220346092101A89847DDE90C
:104C60000332044912BA1BBAC1E900230BB05DF844
:104C700004FB00BFA82D0020013900F0B3805D4A7D
:104C800013784FEA231C9F2B8CBF0CF1370C0CF1CF
:104C9000300C012980F800C000F0A78003F00F035A
:104CA000092BCCBF373330330229437000F09D808D
:104CB00053784FEA231C9F2B8CBF0CF1370C0CF15F
:104CC000300C032980F802C000F08F8003F00F033E
:104CD000092BCCBF373330330429C37000F08580F3
:104CE00093784FEA231C9F2B8CBF0CF1370C0CF1EF
:104CF000300C052980F804C077D003F00F03092B8E
:104D0000CCBF37333033062943716ED0D3784FEAA6
:104D1000231C9F2B8CBF0CF1370C0CF1300C072996
:104D200080F806C061D003F00F03092BCCBF3733E6
:104D300030330829C37158D013794FEA231C9F2BB5
:104D40008CBF0CF1370C0CF1300C092980F808C02D
:104D50004BD003F00F03092BCCBF373330330A2974
:104D6000437242D053794FEA231C9F2B8CBF0CF126
:104D7000370C0CF1300C0B2980F80AC035D003F049
:104D80000F03092BCCBF373330330C29C3722CD01F
:104D900093794FEA231C9F2B8CBF0CF1370C0CF13D
:104DA000300C0D2980F80CC01FD003F00F03092B25
:104DB000CCBF373330330E29437316D0D3791A1151
:104DC0009F2B8CBF373230320F2982730DD003F006
:104DD0000F03092BD4BF303337331029C37318BFE7
:104DE000103002D000230370704700230844037082
:104DF000704700BFA82D0020F8B500F03BF90C2348
:104E000040271A4D1A4CAB67FF220E201949FBF7B9
:104E10002FFD3A460021204603F08CF8164B012660
:104E2000A36280210023154A6670A260843A27831A
:104E300027876184C2F88430C2F88030636084F8C8
:104E4000213084F83B3063620D4BE360E36208F08D
:104E5000CFFA4FF000544FF480320A490A4B2E64C7
:104E60003046EC64C5F89010DA64F8BD00001150CB
:104E700074290020A90300208000105084001050E5
:104E80000001105010D001000020115001210E200F
:104E9000FBF77ABC00220248114600F00BB900BFB4
:104EA00094290020044B197021B14FF40032034BB8
:104EB000C3F89020704700BFD12D00200020115072
:104EC0000B785B0602D14B78052B00D070474B88DE
:104ED000014ADBB21360704700001150CB782DE916
:104EE000F04103F0030EBEF1010FC3F301005FD0E8
:104EF000002791F802C0374D0CF07F0256008988D8
:104F000006EBDC1305EB43134FEADC14C1F30A0193
:104F1000D87684F0010083F802C019835870DF70DE
:104F200094BB04232C4803EBC20305EB821C03EB68
:104F30000008CCF808801F508AB3284BD2001344D5
:104F4000CCF804303F31BEF1020F21F03F013AD0DE
:104F5000234A3719136805EB471719441160214A92
:104F6000FB60914231D8344405EB4415E97E83F06F
:104F7000A04383F480136A6843EA816343F00043EB
:104F800001201360BDE8F081134813B200EBC208A2
:104F900005EB821CCCF8288040F833705AB9002306
:104FA000114A05EB44140120E2606360BDE8F08122
:104FB0000020BDE8F081D20002F1A04202F580128B
:104FC000CCF82420BEE74900C2E7FCF703FCFB68ED
:104FD000C9E700BF74290020800010500400105061
:104FE0007C2D0020FF0F10500001105008F000BA77
:104FF0008C4608B5114607481A460CF07F034FEA65
:10500000DC1C0CEB430C00EB4C1000F053F80120BF
:1050100008BD00BF7429002011F07F000AD0C90923
:10502000074B01EB40004FF40062002103EB4010FE
:1050300008F0EEB9034BC909C1F102029A66EFE725
:10504000742900200020115011F07F0300D1704717
:10505000002210B4C809064C00EB430004EB4013D7
:105060006FF4006118465DF8044BDA7008F0D0B9AF
:10507000742900204FF0805209480A4908B50A4BAC
:1050800002600A609968C94311F08051FAD14FF467
:105090008052064802F04EFF0922054B5A6708BDB0
:1050A000002002400030024000000240000010508A
:1050B00000001150837E10B50446BBB94FF0000CC0
:1050C00001232046A2822161A4F816C0A37608F02D
:1050D0008BF920B14FF40032084BC3F890202046E2
:1050E00008F092F928B10123237710BD08F06CF97C
:1050F000E4E72046BDE8104008F06EB900201150EA
:105100002DE9F04100241D4D804623462A781C4F8E
:105110001C4E0DE0336813EB441325D0DB6840468A
:1051200098472A780134E4B2511CA142234606DB99
:10513000A242A3EB0203EDD807EB4313EEE7124CB8
:1051400054220021204602F0F5FE4FF0FF33251DCA
:105150006360C5E90133EB6004F114002022BDE86F
:10516000F041FF2102F0E6BE4FF0E023D3F8F03D1E
:10517000DB0700D500BEBDE8F08100BFD02D0020C8
:1051800048D900104C2300201C250020704700BF88
:10519000704700BF0020704700207047704700BF75
:1051A000704700BF704700BF704700BF024B587880
:1051B000003818BF012070471C250020024B1878CA
:1051C000C0F38000704700BF1C2500202DE9F04788
:1051D000DFF8008198F80030FF2B4DD10D460029F3
:1051E0004ED0002154220746314802F0A3FE00228F
:1051F000304C314B20461A70FBF7D0FC2F4B1C6013
:105200002F4C04F11400FBF7D7FC204601F0EEFD13
:105210002C4B1C602C4B23B12C48FFF7C3FA2C4BB2
:1052200018600024294E23463278DFF8ACA0DFF85E
:10523000A0900EE0D9F8003013EB441311D05B6856
:105240007BB1984732780134E4B2511CA142234625
:1052500020DBA242EED89B1A0AEB43135B68002BBB
:10526000EFD14FF0E023D3F8F03DDA0700D500BED0
:1052700000252846BDE8F08701252846BDE8F087CF
:105280004FF0E023D3F8F03DDB07F1D500BE284610
:10529000BDE8F0872946384688F80070FFF7ACFD76
:1052A00005460028ECD03846FFF7F0FDE5E700BFE3
:1052B0001C25002014250020D22D00207025002060
:1052C0009417002074250020A5470010D02D002041
:1052D0004C230020B017002048D900102DE9F04FD2
:1052E000DFF8CC928BB099F80030FF2B00F0EF8004
:1052F000AA4CDFF8C0A2DFF8C0B225686B69EFF3F3
:10530000108272B6D3E8CF0F01210028FAD1C3E88A
:10531000401F0028F6D1BFF35F8FAA61284607A976
:1053200001F0C0FB00236A69C2E88F3FAB6983F3D9
:105330001088002800F0CB809DF81D30013B072B22
:1053400000F28E83DFE803F0A5B0919A89360A0453
:10535000089B002BD1D009989847CEE79DF82010E4
:105360008F4B01F07F0503EB450303EBD11393F85B
:1053700034206FF3000283F8342093F834206FF365
:10538000820283F83420002D00F0A480854A1B7D22
:105390001278934280F09180DBF8002012EB4313E7
:1053A00000F08E809D699DF82120099B9DF81C00CE
:1053B000A847A2E77C4A1378002B00F0818013787D
:1053C000013BDBB21370137803F0FF00002B94D184
:1053D000734D9DF81C802B7843F001032B7095F8DA
:1053E000343060F3000385F8343095F8343060F3DE
:1053F000820385F8343095F8353060F3000385F882
:10540000353095F8353060F3820385F8353000F09B
:105410008DFC9DF8203003F06002602A0BD0402AFA
:1054200064D003F01F03012B00F0C880022B00F0B2
:105430008980002B66D04FF0E023D3F8F03DDD07E4
:1054400000D500BE9DF81C000021FFF7E5FD80217E
:105450009DF81C00FFF7E0FD4FE7514B1B78D90783
:105460007FF54BAFFFF7A0FE47E74D4BDB78DA0740
:105470007FF543AF0898FFF78BFE3EE7484B1A785D
:10548000D0077FF53AAF1878C0F3C000FFF78AFE67
:1054900033E79DF81C00FFF733FE00F03DFC404B66
:1054A0009DF820209A7028E79DF81C00FFF728FE41
:1054B00000F032FCFFF774FE1FE7501C984211DA2F
:1054C0004FF0E023D3F8F03DDC0700D500BE0BB071
:1054D000BDE8F08F099B9DF821209DF81C0000F08D
:1054E00039FC0AE79B1A0AEB43135BE72F4800F0ED
:1054F0001DFC4046012108AAFFF740F900287FF46F
:10550000FCAE9FE7202A00F08D81002A93D19DF800
:105510002130092B8FD801A252F823F0C357001075
:10552000A757001037540010E557001037540010EB
:105530008D5700103B5700103754001025570010AE
:105540004B5600109DF8241011F0700F7FF473AFCC
:10555000144B01F07F06187805EB460303EBD113DB
:105560001F7DCB0987424FEA460601935BD3431C5C
:10557000BB42C0F274813F1A0AEB4717002A00F0C1
:105580007281786900F0D2FB404601217B6908AA4C
:10559000984700287FF4B1AE54E700BF742500207F
:1055A0001C250020D02D0020D22D00207D4700108A
:1055B000B017002048D900104C2300209DF824305B
:1055C0000F2B3FF63FAFB54A2B441B791578AB4202
:1055D00034D36A1C9A42FFF635AF5B1B0AEB4315C6
:1055E000686900F0A3FB012140466B6908AA98474F
:1055F00000287FF482AE9DF8203013F060057FF420
:1056000021AF9DF821300A3B012B3FF61BAF00F084
:105610008DFB9DF821300A2B00F0F781404608A948
:1056200000F0FAFA69E6DBF8003003EB4717002ACE
:1056300000F01981002F3FF405AFA2E7DBF800501E
:1056400015EB43153FF4FEAECAE76B789DF8226078
:105650009E4200F054816B78002B40F0C4816E7044
:10566000002E00F04A81701EC0B2FFF7ADFA00288C
:1056700000F065814378022B40F061812B78C2797C
:1056800023F03001C2F340131B01C2F3801243EA3E
:1056900042130B432B70438800F10906C318029391
:1056A000CDF80C80029BB34240F2AA8172780B2A9B
:1056B00000F0B5810123042A40F0418118464FF0E3
:1056C0000008029A7549921B33460978064692B241
:1056D000CDF804801EE0DBF8007017EB481700F0EF
:1056E0002E811946049303983B6905929847DDE99A
:1056F0000432082808F1010102D9824280F00481B5
:105700005FFA81F86549CDF804800978481C804526
:1057100000F3158101988845A0EB0101DBD30AEB6A
:105720004117DEE76B7840468DF81A300DF11A020A
:10573000012308A900F08AFADFE5BDF82200030A78
:105740005A1EC0B20E2A3FF67DAE01A151F822F0DA
:105750006F59001001580010AB590010455400104B
:10576000455400108D590010015800104554001088
:105770004554001045540010455400104554001085
:1057800045540010455400106159001008A800F05D
:10579000D3FA40469DF82210FFF77CFB2B7843F0AC
:1057A00002032B70A9E5BDF82230012B7FF44AAE2D
:1057B0002B7840466FF3C30308A92B7000F02CFA36
:1057C0009BE540462B789A0802F00202C3F340138F
:1057D0001343ADF81A300DF11A02022308A900F0A4
:1057E00035FA8AE5BDF82230012B7FF42BAE2B78F9
:1057F000404643F0080308A92B7000F00DFA7CE541
:10580000022B00F01181FFF7C7FC024600283FF48D
:1058100019AE4046538808A900F018FA00287FF412
:105820006CAD0FE69DF824300F2B3FF60BAE1B4AF4
:105830002B441B791578AB4227D2DBF8005015EBCF
:1058400043153FF4FFAD686900F070FA404601214E
:105850006B6908AA984700287FF44FADF2E5002A4B
:105860007FF4F0AD00279DF8212002F0FD03012B0D
:1058700016D0002A7FF4DFAD019B35442B4493F80A
:1058800034304046C3F34003A3E76A1C9A42FFF654
:10589000D9AD5B1B0AEB4315D5E700BFD02D002027
:1058A000BDF82230ABB9012A00F0878099F80000DA
:1058B000FFF7B2FB019AAB19134493F8342042F07E
:1058C000020283F8342093F8342042F0010283F876
:1058D0003420002F3FF411AD786900F027FA7B697E
:1058E000012108AA40469847002000F01FFA95F8C9
:1058F0003530DE073FF501AD90E6FFF751FC40463D
:1059000008A900F089F9F8E43246012A1E46134638
:1059100000F0A080002A00F08E800022B77805E019
:1059200081F80480D1B28B4240F28580B91855FAD3
:1059300081F191F804C00132BCF1FF0FF0D04FF0BB
:10594000E023D3F8F03DDB0700D500BE4FF0E023A5
:10595000D3F8F03DDF0700D500BE00236B7071E582
:10596000FEF708FF024600287FF453AF6AE5FFF711
:1059700027F9024600283FF45EAD4046122308A9ED
:1059800000F064F900287FF4B8AC5BE5FFF702FC97
:10599000024600283FF456AD4046137808A900F0AF
:1059A00055F900287FF4A9AC4CE5BDF82410FFF7A9
:1059B0000FF902460028EFD144E599F80000029360
:1059C000FFF742FB019BAA191A4492F83410029B7C
:1059D00063F3410182F8341092F8341063F300014C
:1059E00082F8341075E700214046FFF75BFA404625
:1059F000FFF7FCFAAF784046FFF782FBAF702EE668
:105A0000DDF80C80FFF7CAFB79E74046012308A9BF
:105A10000DF11A028DF81A5000F018F96DE4327881
:105A2000F3781644727846E6FFF7CEF8024600286F
:105A30007FF4EFAEFFE402464346314606440D488C
:105A400000F0A0FE0C4B019A1B7801339342BFF685
:105A500029AE74E73A6909498A4208BF02235CE724
:105A60004FF0E023D3F8F03DDB077FF546AC00BEF6
:105A700043E400BF30250020D02D002075610010C8
:105A80002DE9F84F0A9F002A40D00C461E461546C5
:105A90004FF0000ADFF87C90DFF87C8018E02046A9
:105AA00098F8021099F800B000F038FEE0B12146F5
:105AB0005846FFF713FAF0B1A2780AF1010AD309A8
:105AC00016BF0B9B3A701A702278AA4514441DD059
:105AD0006278052A0FD1E17801F00301B1420AD1C1
